:020000040800F2
:100000008006002081010008BB090008B90900082A
:1000100000000000000000000000000000000000E0
:10002000000000000000000000000000BF09000800
:100030000000000000000000BD090008C109000820
:100040009301000893010008930100089301000840
:100050009301000893010008930100089301000830
:100060009301000893010008930100089301000820
:100070009301000893010008930100089301000810
:100080009301000893010008930100089301000800
:1000900093010008930100089301000893010008F0
:1000A00093010008930100089301000893010008E0
:1000B00093010008930100089301000893010008D0
:1000C00000F002F800F04CF812A030C808382418EC
:1000D0002D18AC4201D100F043F80FCCA246AB463C
:1000E0000CA730CF2D1B083F3F197C427F1E544484
:1000F0002D090426F441641EAC4201D300F030F80F
:100100000126334200D0FB1A3343984754465D46DC
:10011000DFE700007813000098130000103A02D3C4
:1001200078C878C1FAD8520701D330C830C101D598
:1001300004680C6070470000704700000023002432
:1001400000250026103A01D378C1FBD8520700D30E
:1001500030C100D50B6070471FB51FBD10B510BD75
:1001600000F04DF81146FFF7F7FF00F02FFC00F00C
:1001700065F803B4FFF7F2FF03BC00F06BF8000072
:100180000748804707480047FEE7FEE7FEE7FEE72F
:10019000FEE7FEE704480549054A064B70470000A4
:1001A000C9090008C1000008800000208006002066
:1001B000800200208002002001E004C0091F042901
:1001C000FBD28B0701D50280801CC90700D00270CA
:1001D000704700290BD0C30702D00270401C491E93
:1001E000022904D3830702D50280801C891EE3E71D
:1001F0000022EEE70022DFE7704770477047754640
:1002000000F024F8AE46050069465346C008C00019
:10021000854618B020B5FFF7BDFF60BCB646002686
:100220000027C0C5C0C5C0C5C0C5C0C5C0C5C0C504
:10023000C0C5403D490849008D46704710B5044689
:10024000C046C0462046FFF794FF10BD00487047E7
:100250001000002001491820ABBEFEE72600020076
:1002600070470000B0B5044600F00CF80546601C6D
:1002700002D021480078041900F004F8401BA04285
:10028000FAD3B0BD054800687047C0461A480078E8
:1002900002490A68101808607047C04678000020BC
:1002A00080B58548016810220A430260032000F0EF
:1002B00005F800F023F8002080BDC04670B5044664
:1002C0007D20C0000C4E317800F0CCFF0146824802
:1002D000006800F0C7FF00F055FB0125032C08D88B
:1002E000002806D10025E84321462A4600F01CF8E4
:1002F0007460284670BDC0460000002082B00948E6
:1003000001680122114301600168114001910199C6
:10031000110742680A434260406808400090009814
:1003200002B0704718100240002805D4032203468B
:1003300093430A4A9A1803E00C220240064BD21853
:100340008007C00E8901C9B28140FF238340106835
:10035000984308431060704714ED00E000E400E0AB
:10036000F0B581B0002846D00446534A13680120F6
:1003700003408B4208D213680126B3430B4313603A
:10038000126832408A4237D1009121688A074B4B6C
:1003900010D54A0706D5072212021B681343474AA5
:1003A0001360464B1A68F0239A43A3681343434AE9
:1003B0001360424BC90722D13F49086801263040EB
:1003C000009A904205D90868B04308600868C007E1
:1003D00012D12078400706D5072000021968814312
:1003E000E068084318601A681007810F3548022931
:1003F00012D2044650E00126304601B0F0BD6168DB
:1004000003290DD01A1F02290FD0012912D1126819
:1004100092030646F0D511E0032926D12A4C3BE091
:100420001A6B92030646E7D508E012689201064669
:10043000E2D503E0126892070646DDD51868032668
:10044000B04308431860FFF71DFF07461C4D1B4BC8
:1004500018680C210140606880008142ACD0FFF731
:1004600011FFC01BA842F2D9C6E70321CB031349F1
:10047000896A0F240C401549095D94021A40240F23
:10048000134D2C5D9A4202D033049A4200E00E488C
:1004900000F0E8FE4443094B18680006000F0D49C0
:1004A000085CC4400C4804600320FFF707FF0026E7
:1004B000304601B0F0BDC0460020024004100240AA
:1004C0008813000000127A00006CDC027A14000825
:1004D0006A1400085A14000808000020F0B587B01C
:1004E00004460120002C00D145E204902078C0078A
:1004F000F94E05940CD071680C200140042900D0FD
:1005000090E03068800303D56068002800D120E1C6
:100510002078800721D570680007800F0ED07068A2
:100520000C210140082900D09DE00320C003716820
:1005300001400120C003814200D094E03068800770
:10054000059C03D5E068012800D002E13068F8215D
:1005500088432169C90001433160059C2078000768
:1005600024D42078400737D42078C00600D4D3E0C4
:1005700005984069411D00D1C2E0012800D030E15A
:10058000706B042101437163706B0121014371633E
:10059000FFF778FE0546706B800700D5B4E0FFF7E3
:1005A00071FE411B03200229F5D9E4E1706AE1697B
:1005B000002900D181E0012108437062FFF762FE4B
:1005C0000546706A8007CCD4FFF75CFE401B02280A
:1005D000F7D9032007B0F0BD012003900107F069AF
:1005E0000840029006D1F0690843F061F0690840C4
:1005F000069006980191E14F3868C0054AD40398E7
:100600000402386820433860FFF73CFE054638682E
:1006100020423FD1FFF736FE401B6428F7D9032064
:1006200007B0F0BD71680140082908D10320C0035C
:100630007168014001200004814200D161E76168D6
:1006400001204704002900D117E1052900D12BE141
:10065000012900D12CE1010432688A43326081040F
:100660003068884327E13068059CE168002936D06E
:10067000012108433060FFF705FE0546306880071A
:1006800000D563E7FFF7FEFD401B0228F6D90320E3
:1006900007B0F0BD05988068002800D1B6E00528B5
:1006A00000D1C9E0012800D1CAE0306A039988432B
:1006B0003062306A04218843C5E0012188437062BA
:1006C000FFF7E0FD0546706A800700D449E7FFF7B1
:1006D000D9FD401B0228F6D9032007B0F0BD012147
:1006E00088433060FFF7CEFD05463068800700D4B0
:1006F00033E7FFF7C7FD411B03200229F5D93AE193
:10070000706B042188437063706BF82188430599EE
:100710008969C900014371630598007880060BD58B
:1007200071680C2001400C2939D1706B800303D50E
:100730000598006A01280CD10598446A002C00D164
:10074000E1E070680C210140082905D1012C00D09E
:10075000C4E0049807B0F0BD01200206316804929D
:10076000914331604706FFF78DFD0546022C0BD102
:10077000049C3068384200D1DEE0FFF783FD411B66
:1007800003200229F5D9F6E03068384200D1BAE0FA
:10079000FFF778FD411B03200229F5D9EBE07168D2
:1007A0000140082905D10320C0037168014081423E
:1007B000BBD0706B0599096A002900D1A9E001211D
:1007C0000A04104370634C04FFF75CFD0546706B30
:1007D0002042B1D1FFF756FD411B03200229F6D973
:1007E000C9E0706B042101437163706B0121884380
:1007F0007063FFF747FD0546706B80078CD5FFF7E8
:1008000041FD411B03200229F6D9B4E0306A039967
:1008100088433062306A042188433062584CFFF7C5
:1008200031FD0546306A80071DD5FFF72BFD411BC2
:100830000320A142F6D99EE0306A042101433162CF
:10084000306A0399084330624D4CFFF71BFD0546A3
:10085000306A800707D4FFF715FD401BA042F7D987
:10086000032007B0F0BD02980028059C00D07BE66D
:10087000F06901998843F06176E6010432688A43A1
:1008800032608004316881433160FFF7FBFC05462C
:10089000059C3068384200D13AE6FFF7F3FC411B73
:1008A00003206429F5D966E0810432680A43326086
:1008B0000104306808433060FFF7E4FC0546306807
:1008C000384200D024E6FFF7DDFC401B6428F6D94F
:1008D000032007B0F0BDC046001002400320C20351
:1008E00070680240F16A059CA36A9A42049D0DD18A
:1008F0000F221140236B994208D191040840E16A0C
:100900008842284637D1002007B0F0BD284607B0FE
:10091000F0BD01210A04904370634C04FFF7B2FC60
:100920000546706B204200D106E7FFF7ABFC411B88
:1009300003200229F5D91EE0F06A0F218843059AA9
:10094000116B0143F1627B20C00371688143D06A5F
:100950000843916A01437160306820433060FFF7BB
:1009600091FC044630683842CDD1FFF78BFC011B67
:1009700003200229F6D907B0F0BDC0460070004040
:1009800088130000401E010E01D001207047074966
:10099000074A5060074803680B400321890759182C
:1009A000016000209060072111607047FFFFFF0089
:1009B00010E000E020ED00E0FEE7FEE77047704742
:1009C00080B5FFF763FC80BD7047000000B59BB0A9
:1009D000FFF766FC0EAD281D3021FFF70BFC00244D
:1009E0001794102012900127119702200E9028468C
:1009F000FFF774FD002803D0EFF3108072B6FEE716
:100A00000D940C940B9407200A900AA82146FFF736
:100A1000A7FC002803D0EFF3108072B6FEE7BB05F9
:100A20008A4A90681843906039070991884C254696
:100A3000083D2868084328602868132606432E606E
:100A40000F2000022E6806432E60780406902E6860
:100A500006432E602E681E432E602346183B1D68F9
:100A60003D431D60BB0415681D431560FB041568FC
:100A70001D431560F905774B1D46243D2A680A433E
:100A80002A60FA021E46203E306810433060186823
:100A9000714A1040186038031A6802431A60F80659
:100AA0002A6802432A607A03049230681043306057
:100AB000186888431860052000051A6802431A6008
:100AC0002868099908432860B80331688143316078
:100AD000103B1860614E314614390868384308608D
:100AE0003346103B1868B8431860089737605520A4
:100AF00000030A6802430A600868574A1040086009
:100B0000186857490840186030460C3802680A4097
:100B100002603046083802680A40026030684021AE
:100B2000884330603068802207929043306030689C
:100B30004C4A1040306030684B4A104030602746C5
:100B4000143F3868D2220992104338603868069AF8
:100B5000104338603868454A104038603868049A55
:100B6000104338602068800717D4306848403060F0
:100B70002068800711D430684840306020688007C2
:100B80000BD43068484030602068800705D4306856
:100B90004840306020688007E7D53068884330607F
:100BA000202020612068800717D4306848403060DA
:100BB0002068800711D43068484030602068800782
:100BC0000BD43068484030602068800705D4306816
:100BD0004840306020688007E7D530680591884339
:100BE00030600B202061089805022068400617D469
:100BF0003068684030602068400611D43068684032
:100C00003060206840060BD430686840306020684F
:100C1000400605D430686840306020684006E7D55B
:100C200030681049084030600898410230680091EF
:100C3000084330606420FFF715FB30680A4908401C
:100C4000089A910206911104089113E014100240D1
:100C50001858004024040048FFDFFFFF1408004834
:100C6000FFEFFFFFFFFEFFFFFFFDFFFFFFFBFFFFAB
:100C70003068184330606420FFF7F4FA38680C4994
:100C8000084038603868099908433860386808991E
:100C90000843386038680749084038603868049964
:100CA0000843386020688007059B1DD404E0C046D7
:100CB00000FC80FFFFFBFFFF306858403060206879
:100CC000800711D4306858403060206880070BD40A
:100CD0003068584030602068800705D4306858403C
:100CE000306020688007E7D530689843306028205E
:100CF00020612068400617D4306868403060206862
:100D0000400611D4306868403060206840060BD43B
:100D10003068684030602068400605D4306868401C
:100D2000306020684006E7D530680C4908403060E4
:100D3000386809990843386038680899084338606A
:100D40003868069908433860386804990843386061
:100D50002068400707991BD402E0C046FFFEFFFF52
:100D60003068084330602068400711D43068084379
:100D70003060206840070BD430680843306020683A
:100D8000400705D430680843306020684007E7D545
:100D9000306888433060E2682168490617D43168BA
:100DA000694031602168490611D431686940316079
:100DB000216849060BD431686940316021684906D1
:100DC00005D431686940316021684906E7D531684A
:100DD0000E48014031600E48027039680D480140EC
:100DE00039603968099801433960396808980143C6
:100DF000396039680848014039603968049801430E
:100E000039602168890721D408E0C046FFFEFFFF52
:100E10007000002000FC80FFFFFBFFFF316859409D
:100E200031602168890711D43168594031602168E7
:100E300089070BD43168594031602168890705D48E
:100E400031685940316021688907E7D502923168DD
:100E500099433160292121612168490617D43168FD
:100E6000694031602168490611D4316869403160B8
:100E7000216849060BD43168694031602168490610
:100E800005D431686940316021684906E7D5316889
:100E9000EE4A114031603968099A11433960396866
:100EA000089A114339603968069A114339603968E4
:100EB0000143396021684907079A17D43168114303
:100EC00031602168490711D43168114331602168CC
:100ED00049070BD43168114331602168490705D4B3
:100EE00031681143316021684907E7D53168914382
:100EF0003160E16803912268520617D432686A4073
:100F000032602268520611D432686A403260226828
:100F100052060BD432686A4032602268520605D409
:100F200032686A40326022685206E7D53268C749A3
:100F30000A403260CA49039A8A703A68C7490A402F
:100F40003A603A6809990A433A603A6808990A434C
:100F50003A603A68BE490A403A603A6802433A60E9
:100F60002268920717D432685A403260226892078A
:100F700011D432685A403260226892070BD432682A
:100F80005A4032602268920705D432685A40326073
:100F900022689207E7D532689A4332602A2222619A
:100FA00022685206079917D432686A403260226874
:100FB000520611D432686A403260226852060BD45D
:100FC00032686A4032602268520605D432686A404C
:100FD000326022685206E7D532689C4B1A40326074
:100FE0003A68099B1A433A603A68089B1A433A6088
:100FF0003A68069B1A433A603A6802433A602268AC
:10100000520717D432680A4332602268520711D45B
:1010100032680A433260226852070BD432680A43AE
:1010200032602268520705D432680A43326022686F
:101030005207E7D532688A433260E26823685B066C
:1010400017D433686B40336023685B0611D4336870
:101050006B40336023685B060BD433686B403360AE
:1010600023685B0605D433686B40336023685B06F6
:10107000E7D5336875490B40336079494A703B685E
:1010800076490B403B603B6809990B433B603B68EA
:1010900008990B433B603B686D490B403B603B68E4
:1010A00003433B6023689B07059917D433684B4083
:1010B000336023689B0711D433684B403360236847
:1010C0009B070BD433684B40336023689B0705D4E0
:1010D00033684B40336023689B07E7D533688B4305
:1010E00033602B23236123685B0617D433686B407E
:1010F000336023685B0611D433686B403360236828
:101100005B060BD433686B40336023685B0605D401
:1011100033686B40336023685B06E7D533684B491F
:101120000B4033603B6809990B433B603B6808996F
:101130000B433B603B6806990B433B603B680343B2
:101140003B6023685B07079817D433680343336019
:1011500023685B0711D433680343336023685B075C
:101160000BD433680343336023685B0705D43368CB
:101170000343336023685B07E7D5336883433360F9
:10118000E3682068400617D4306868403060206803
:10119000400611D4306868403060206840060BD4A7
:1011A0003068684030602068400605D43068684088
:1011B000306020684006E7D5306824490840306038
:1011C000D0B21A021118264A0191D1800298C0B2F9
:1011D0000399090208189080D37000B21D49884213
:1011E00004DD306800990843059B05E01A498842F0
:1011F000059B14DA306828430799019A306010B2D1
:10120000144A904200DD33E5134A904216DB11493F
:10121000884200DB2FE51049884212D12BE50D49A9
:1012200088420799019AEADA0B4B9842059BE6D06F
:1012300003200102306888430799DFE730680843DC
:1012400018E53068C021884314E5C046FFFEFFFF63
:10125000FFFBFFFFDC05000024FAFFFF00FC80FF1E
:101260007000002043088B421AD3002203098B42EE
:1012700079D3030A8B425ED3030B8B4242D3030C18
:101280008B4227D30902FF2212BA030C8B4202D3EE
:101290001212090203D0030B8B4233D31AE0D3E0BE
:1012A000411A8041401C704703460B4371D44308E8
:1012B0008B42F5D3002203098B4254D3030A8B429D
:1012C00039D3030B8B421DD3030C8B4202D39446BC
:1012D0006EE0090AC30B8B4201D3CB03C01A524103
:1012E000830B8B4201D38B03C01A5241430B8B42B9
:1012F00001D34B03C01A5241030B8B4201D30B03A2
:10130000C01A5241C30A8B4201D3CB02C01A5241C8
:10131000830A8B4201D38B02C01A5241430A8B428B
:1013200001D34B02C01A5241030A8B4201D30B0274
:10133000C01A5241CDD2C3098B4201D3CB01C01A8E
:10134000524183098B4201D38B01C01A5241430998
:101350008B4201D34B01C01A524103098B4201D386
:101360000B01C01A5241C3088B4201D3CB00C01AF3
:10137000524183088B4201D38B00C01A524143086B
:101380008B4201D34B00C01A5241411A5241100006
:101390007047CA0F00D04942031000D34042534067
:1013A00000229C4603098B422DD3030A8B4212D3A1
:1013B0008901FC2212BA030A8B420CD389019211D3
:1013C0008B4208D3890192118B4204D3890137D013
:1013D000921100E08909C3098B4201D3CB01C01AE5
:1013E000524183098B4201D38B01C01A52414309F8
:1013F0008B4201D34B01C01A524103098B4201D3E6
:101400000B01C01A5241C3088B4201D3CB00C01A52
:10141000524183088B4201D38B00C01A5241D9D26A
:1014200043088B4201D34B00C01A5241411A00D2EB
:1014300001465241104663465B1000D3404270475C
:1014400063465B1000D3404201B50021004201D049
:10145000C9430846C046C04602BD00000000000067
:101460000000010203040607080902030405060739
:1014700008090A0B0C0D0E0F1010010203040506DB
:101480000708090A0B0C0D0E0F100000B01400081D
:1014900000000020100000001C010008C01400081B
:1014A00010000020700600003C0100080000000051
:1014B000010000000400000000127A00000000009B
:04000005080000C12E
:00000001FF
