:020000040800F2
:100000007806002081010008BB090008B909000832
:1000100000000000000000000000000000000000E0
:10002000000000000000000000000000BF09000800
:100030000000000000000000BD090008C109000820
:100040009301000893010008930100089301000840
:100050009301000893010008930100089301000830
:100060009301000893010008930100089301000820
:100070009301000893010008930100089301000810
:100080009301000893010008930100089301000800
:1000900093010008930100089301000893010008F0
:1000A00093010008930100089301000893010008E0
:1000B00093010008930100089301000893010008D0
:1000C00000F002F800F04CF812A030C808382418EC
:1000D0002D18AC4201D100F043F80FCCA246AB463C
:1000E0000CA730CF2D1B083F3F197C427F1E544484
:1000F0002D090426F441641EAC4201D300F030F80F
:100100000126334200D0FB1A3343984754465D46DC
:10011000DFE70000FC1000001C110000103A02D3C1
:1001200078C878C1FAD8520701D330C830C101D598
:1001300004680C6070470000704700000023002432
:1001400000250026103A01D378C1FBD8520700D30E
:1001500030C100D50B6070471FB51FBD10B510BD75
:1001600000F04DF81146FFF7F7FF00F02FFC00F00C
:1001700065F803B4FFF7F2FF03BC00F06BF8000072
:100180000748804707480047FEE7FEE7FEE7FEE72F
:10019000FEE7FEE704480549054A064B70470000A4
:1001A000C9090008C1000008780000207806002076
:1001B000780200207802002001E004C0091F042911
:1001C000FBD28B0701D50280801CC90700D00270CA
:1001D000704700290BD0C30702D00270401C491E93
:1001E000022904D3830702D50280801C891EE3E71D
:1001F0000022EEE70022DFE7704770477047754640
:1002000000F024F8AE46050069465346C008C00019
:10021000854618B020B5FFF7BDFF60BCB646002686
:100220000027C0C5C0C5C0C5C0C5C0C5C0C5C0C504
:10023000C0C5403D490849008D46704710B5044689
:10024000C046C0462046FFF794FF10BD00487047E7
:100250001000002001491820ABBEFEE72600020076
:1002600070470000B0B5044600F00CF80546601C6D
:1002700002D021480078041900F004F8401BA04285
:10028000FAD3B0BD054800687047C0461A480078E8
:1002900002490A68101808607047C04674000020C0
:1002A00080B58548016810220A430260032000F0EF
:1002B00005F800F023F8002080BDC04670B5044664
:1002C0007D20C0000C4E317800F08EFE0146824841
:1002D000006800F089FE00F055FB0125032C08D8CA
:1002E000002806D10025E84321462A4600F01CF8E4
:1002F0007460284670BDC0460000002082B00948E6
:1003000001680122114301600168114001910199C6
:10031000110742680A434260406808400090009814
:1003200002B0704718100240002805D4032203468B
:1003300093430A4A9A1803E00C220240064BD21853
:100340008007C00E8901C9B28140FF238340106835
:10035000984308431060704714ED00E000E400E0AB
:10036000F0B581B0002846D00446534A13680120F6
:1003700003408B4208D213680126B3430B4313603A
:10038000126832408A4237D1009121688A074B4B6C
:1003900010D54A0706D5072212021B681343474AA5
:1003A0001360464B1A68F0239A43A3681343434AE9
:1003B0001360424BC90722D13F49086801263040EB
:1003C000009A904205D90868B04308600868C007E1
:1003D00012D12078400706D5072000021968814312
:1003E000E068084318601A681007810F3548022931
:1003F00012D2044650E00126304601B0F0BD6168DB
:1004000003290DD01A1F02290FD0012912D1126819
:1004100092030646F0D511E0032926D12A4C3BE091
:100420001A6B92030646E7D508E012689201064669
:10043000E2D503E0126892070646DDD51868032668
:10044000B04308431860FFF71DFF07461C4D1B4BC8
:1004500018680C210140606880008142ACD0FFF731
:1004600011FFC01BA842F2D9C6E70321CB031349F1
:10047000896A0F240C401549095D94021A40240F23
:10048000134D2C5D9A4202D033049A4200E00E488C
:1004900000F0AAFD4443094B18680006000F0D49FF
:1004A000085CC4400C4804600320FFF707FF0026E7
:1004B000304601B0F0BDC0460020024004100240AA
:1004C0008813000000127A00006CDC02FE110008A4
:1004D000EE110008DE11000808000020F0B587B01A
:1004E00004460120002C00D145E204902078C0078A
:1004F000F94E05940CD071680C200140042900D0FD
:1005000090E03068800303D56068002800D120E1C6
:100510002078800721D570680007800F0ED07068A2
:100520000C210140082900D09DE00320C003716820
:1005300001400120C003814200D094E03068800770
:10054000059C03D5E068012800D002E13068F8215D
:1005500088432169C90001433160059C2078000768
:1005600024D42078400737D42078C00600D4D3E0C4
:1005700005984069411D00D1C2E0012800D030E15A
:10058000706B042101437163706B0121014371633E
:10059000FFF778FE0546706B800700D5B4E0FFF7E3
:1005A00071FE411B03200229F5D9E4E1706AE1697B
:1005B000002900D181E0012108437062FFF762FE4B
:1005C0000546706A8007CCD4FFF75CFE401B02280A
:1005D000F7D9032007B0F0BD012003900107F069AF
:1005E0000840029006D1F0690843F061F0690840C4
:1005F000069006980191E14F3868C0054AD40398E7
:100600000402386820433860FFF73CFE054638682E
:1006100020423FD1FFF736FE401B6428F7D9032064
:1006200007B0F0BD71680140082908D10320C0035C
:100630007168014001200004814200D161E76168D6
:1006400001204704002900D117E1052900D12BE141
:10065000012900D12CE1010432688A43326081040F
:100660003068884327E13068059CE168002936D06E
:10067000012108433060FFF705FE0546306880071A
:1006800000D563E7FFF7FEFD401B0228F6D90320E3
:1006900007B0F0BD05988068002800D1B6E00528B5
:1006A00000D1C9E0012800D1CAE0306A039988432B
:1006B0003062306A04218843C5E0012188437062BA
:1006C000FFF7E0FD0546706A800700D449E7FFF7B1
:1006D000D9FD401B0228F6D9032007B0F0BD012147
:1006E00088433060FFF7CEFD05463068800700D4B0
:1006F00033E7FFF7C7FD411B03200229F5D93AE193
:10070000706B042188437063706BF82188430599EE
:100710008969C900014371630598007880060BD58B
:1007200071680C2001400C2939D1706B800303D50E
:100730000598006A01280CD10598446A002C00D164
:10074000E1E070680C210140082905D1012C00D09E
:10075000C4E0049807B0F0BD01200206316804929D
:10076000914331604706FFF78DFD0546022C0BD102
:10077000049C3068384200D1DEE0FFF783FD411B66
:1007800003200229F5D9F6E03068384200D1BAE0FA
:10079000FFF778FD411B03200229F5D9EBE07168D2
:1007A0000140082905D10320C0037168014081423E
:1007B000BBD0706B0599096A002900D1A9E001211D
:1007C0000A04104370634C04FFF75CFD0546706B30
:1007D0002042B1D1FFF756FD411B03200229F6D973
:1007E000C9E0706B042101437163706B0121884380
:1007F0007063FFF747FD0546706B80078CD5FFF7E8
:1008000041FD411B03200229F6D9B4E0306A039967
:1008100088433062306A042188433062584CFFF7C5
:1008200031FD0546306A80071DD5FFF72BFD411BC2
:100830000320A142F6D99EE0306A042101433162CF
:10084000306A0399084330624D4CFFF71BFD0546A3
:10085000306A800707D4FFF715FD401BA042F7D987
:10086000032007B0F0BD02980028059C00D07BE66D
:10087000F06901998843F06176E6010432688A43A1
:1008800032608004316881433160FFF7FBFC05462C
:10089000059C3068384200D13AE6FFF7F3FC411B73
:1008A00003206429F5D966E0810432680A43326086
:1008B0000104306808433060FFF7E4FC0546306807
:1008C000384200D024E6FFF7DDFC401B6428F6D94F
:1008D000032007B0F0BDC046001002400320C20351
:1008E00070680240F16A059CA36A9A42049D0DD18A
:1008F0000F221140236B994208D191040840E16A0C
:100900008842284637D1002007B0F0BD284607B0FE
:10091000F0BD01210A04904370634C04FFF7B2FC60
:100920000546706B204200D106E7FFF7ABFC411B88
:1009300003200229F5D91EE0F06A0F218843059AA9
:10094000116B0143F1627B20C00371688143D06A5F
:100950000843916A01437160306820433060FFF7BB
:1009600091FC044630683842CDD1FFF78BFC011B67
:1009700003200229F6D907B0F0BDC0460070004040
:1009800088130000401E010E01D001207047074966
:10099000074A5060074803680B400321890759182C
:1009A000016000209060072111607047FFFFFF0089
:1009B00010E000E020ED00E0FEE7FEE77047704742
:1009C00080B5FFF763FC80BD704700009EB0FFF765
:1009D00067FC11AD281D3021FFF70CFC00241A9490
:1009E0001020159001261496022011902846FFF73A
:1009F00075FD002803D0EFF3108072B6FEE7109467
:100A00000F940E9407200D900DA82146FFF7A8FC27
:100A1000002803D0EFF3108072B6FEE70194B20510
:100A2000AB498868104388603007AA4D2B46083BC5
:100A30001C6804431C601C680596132626431E6030
:100A40000F2424021E6826431E60059C64041E6851
:100A500026431E601C6814431C602A46183A13681B
:100A6000059C23431360059A92040B6813430B60A3
:100A7000059AD2040B6813430B600599CE05964A7C
:100A80001346243B1968314319600599C90214467D
:100A9000203C27680F432760176890490F40176074
:100AA00005990F031168394311600599C9061F683C
:100AB0000F431F6005994F03216839432160116876
:100AC000B14311600521090516680E431660059EA5
:100AD000196801431960B103206888432060103A07
:100AE000089111607E4C2046143801683143016042
:100AF0002246103A1168B14311602660552109035E
:100B000003680B4303600168744B1940016010686F
:100B100074490840106020460C3802680A400260A0
:100B20002046083802680A40026020684023984343
:100B300020602068802206929043206020686A4AE4
:100B4000104020602068694A104020602A46143A0C
:100B50001068D2210A91084310603104106809918D
:100B600008431060106862490840106010680B97D5
:100B700038430C92106028681227384217D1206839
:100B8000584020602868384211D1206858402060C1
:100B9000286838420BD120685840206028683842C5
:100BA00005D120685840206028683842E7D0206886
:100BB0009843206020200390286136022868400670
:100BC00017D42068704020602868400611D420683F
:100BD00070402060286840060BD420687040206078
:100BE0002868400605D420687040206028684006C8
:100BF000E7D52068F74A104020600C990868089AE9
:100C00001043086008680A9A104308600868099A47
:100C1000104308600868F14A1040086008680B9AA1
:100C2000104308602868384217D120685840206077
:100C30002868384211D1206858402060286838421E
:100C40000BD12068584020602868384205D12068C0
:100C50005840206028683842E7D0206807939843BE
:100C600020600B2028612868400617D42068704057
:100C700020602868400611D42068704020602868F1
:100C800040060BD42068704020602868400605D4D8
:100C900020687040206028684006E7D52068CD496C
:100CA000084020600C9A1068089908431060059865
:100CB000410220680291084320606420FFF7D2FAC5
:100CC0002068C549084005998902059116E0C0468B
:100CD000141002401858004024040048FFDFFFFFB2
:100CE00014080048FFEFFFFFFFFEFFFFFFFDFFFFBF
:100CF000FFFBFFFF2068B84A1040084320606420D3
:100D0000FFF7B0FA0C9908680A9A1043086008685F
:100D1000099A104308600868B04A104008600868E3
:100D20000B9A1043086028683842079900D11BE1EC
:100D30002068884320600398286128684006069947
:100D400017D42068704020602868400611D42068BD
:100D500070402060286840060BD4206870402060F6
:100D60002868400605D42068704020602868400646
:100D7000E7D52068974B184020600C9A10680A9BB2
:100D8000184310601068099B184310601068059B99
:100D90001843106010680B9B184310602868384295
:100DA00017D12068084320602868384211D1206894
:100DB00008432060286838420BD12068084320602F
:100DC0002868384205D120680843206028683842E6
:100DD000E7D0206888432060E868049029684906C5
:100DE00017D42168714021602968490611D421680F
:100DF00071402160296849060BD421687140216047
:100E00002968490605D4216871402160296849068E
:100E1000E7D521686F4B194021600C9A1168089B37
:100E2000194311602168079B1943216011680A98D2
:100E30000143116011680998014311601168674806
:100E40000140116011680B98014311600498010280
:100E50006348049101802968394217D121685940BB
:100E600021602968394211D12168594021602968DF
:100E700039420BD12168594021602968394205D196
:100E800021685940216029683942E7D02168994397
:100E90002160212129612968490617D42168714000
:100EA00021602968490611D42168714021602968B0
:100EB00049060BD42168714021602968490605D490
:100EC00021687140216029684906E7D52168414BB6
:100ED000194021600C9A11680A9801431160116849
:100EE0000998014311601168059801431160116868
:100EF0000B980143116029683942069A50D0216845
:100F000091432160E9682A68520617D4226872402A
:100F100022602A68520611D42268724022602A6830
:100F200052060BD42268724022602A68520605D409
:100F30002268724022602A685206E7D52268254B53
:100F40001A4022600C980268089B1A430260C9B2DA
:100F5000049801432248018008B22249884202993C
:100F600000DDC7E60199C5E6206848402060286892
:100F7000384200D0DCE620684840206028683842CB
:100F800000D0D5E62068484020602868384200D06C
:100F9000CEE620684840206028683842E4D0C7E6A2
:100FA00021681143216029683942A8D12168114381
:100FB000216029683942A2D1216811432160296842
:100FC00039429CD121681143216029683942E7D018
:100FD00095E7C046FFFEFFFFFFFDFFFFFFFBFFFFA2
:100FE00070000020DC05000043088B421AD3002269
:100FF00003098B4279D3030A8B425ED3030B8B42E6
:1010000042D3030C8B4227D30902FF2212BA030CEE
:101010008B4202D31212090203D0030B8B4233D34B
:101020001AE0D3E0411A8041401C704703460B434D
:1010300071D443088B42F5D3002203098B4254D369
:10104000030A8B4239D3030B8B421DD3030C8B4213
:1010500002D394466EE0090AC30B8B4201D3CB0343
:10106000C01A5241830B8B4201D38B03C01A5241E9
:10107000430B8B4201D34B03C01A5241030B8B42EB
:1010800001D30B03C01A5241C30A8B4201D3CB02D6
:10109000C01A5241830A8B4201D38B02C01A5241BB
:1010A000430A8B4201D34B02C01A5241030A8B42BE
:1010B00001D30B02C01A5241CDD2C3098B4201D3D6
:1010C000CB01C01A524183098B4201D38B01C01A54
:1010D000524143098B4201D34B01C01A52410309CB
:1010E0008B4201D30B01C01A5241C3088B4201D37A
:1010F000CB00C01A524183088B4201D38B00C01A27
:10110000524143088B4201D34B00C01A5241411A4D
:10111000524110007047CA0F00D04942031000D35B
:101120004042534000229C4603098B422DD3030AC0
:101130008B4212D38901FC2212BA030A8B420CD3D0
:10114000890192118B4208D3890192118B4204D3F9
:10115000890137D0921100E08909C3098B4201D37C
:10116000CB01C01A524183098B4201D38B01C01AB3
:10117000524143098B4201D34B01C01A524103092A
:101180008B4201D30B01C01A5241C3088B4201D3D9
:10119000CB00C01A524183088B4201D38B00C01A86
:1011A0005241D9D243088B4201D34B00C01A52415D
:1011B000411A00D201465241104663465B1000D3EB
:1011C0004042704763465B1000D3404201B50021A6
:1011D000004201D0C9430846C046C04602BD0000D7
:1011E00000000000000001020304060708090203D2
:1011F0000405060708090A0B0C0D0E0F101001025A
:10120000030405060708090A0B0C0D0E0F10000059
:101210003012000800000020100000001C0100082F
:101220004012000810000020680600003C01000881
:10123000010000000400000000127A00000000001D
:04000005080000C12E
:00000001FF
